{"abi":[{"type":"constructor","inputs":[],"stateMutability":"nonpayable"},{"type":"function","name":"approve","inputs":[{"name":"to","type":"address","internalType":"address"},{"name":"tokenId","type":"uint256","internalType":"uint256"}],"outputs":[],"stateMutability":"nonpayable"},{"type":"function","name":"balanceOf","inputs":[{"name":"owner","type":"address","internalType":"address"}],"outputs":[{"name":"","type":"uint256","internalType":"uint256"}],"stateMutability":"view"},{"type":"function","name":"currentTokenId","inputs":[],"outputs":[{"name":"","type":"uint256","internalType":"uint256"}],"stateMutability":"view"},{"type":"function","name":"getApproved","inputs":[{"name":"tokenId","type":"uint256","internalType":"uint256"}],"outputs":[{"name":"","type":"address","internalType":"address"}],"stateMutability":"view"},{"type":"function","name":"isApprovedForAll","inputs":[{"name":"owner","type":"address","internalType":"address"},{"name":"operator","type":"address","internalType":"address"}],"outputs":[{"name":"","type":"bool","internalType":"bool"}],"stateMutability":"view"},{"type":"function","name":"mint","inputs":[{"name":"recipient","type":"address","internalType":"address"}],"outputs":[{"name":"","type":"uint256","internalType":"uint256"}],"stateMutability":"payable"},{"type":"function","name":"name","inputs":[],"outputs":[{"name":"","type":"string","internalType":"string"}],"stateMutability":"view"},{"type":"function","name":"ownerOf","inputs":[{"name":"tokenId","type":"uint256","internalType":"uint256"}],"outputs":[{"name":"","type":"address","internalType":"address"}],"stateMutability":"view"},{"type":"function","name":"safeTransferFrom","inputs":[{"name":"from","type":"address","internalType":"address"},{"name":"to","type":"address","internalType":"address"},{"name":"tokenId","type":"uint256","internalType":"uint256"}],"outputs":[],"stateMutability":"nonpayable"},{"type":"function","name":"safeTransferFrom","inputs":[{"name":"from","type":"address","internalType":"address"},{"name":"to","type":"address","internalType":"address"},{"name":"tokenId","type":"uint256","internalType":"uint256"},{"name":"data","type":"bytes","internalType":"bytes"}],"outputs":[],"stateMutability":"nonpayable"},{"type":"function","name":"setApprovalForAll","inputs":[{"name":"operator","type":"address","internalType":"address"},{"name":"approved","type":"bool","internalType":"bool"}],"outputs":[],"stateMutability":"nonpayable"},{"type":"function","name":"supportsInterface","inputs":[{"name":"interfaceId","type":"bytes4","internalType":"bytes4"}],"outputs":[{"name":"","type":"bool","internalType":"bool"}],"stateMutability":"view"},{"type":"function","name":"symbol","inputs":[],"outputs":[{"name":"","type":"string","internalType":"string"}],"stateMutability":"view"},{"type":"function","name":"tokenURI","inputs":[{"name":"tokenId","type":"uint256","internalType":"uint256"}],"outputs":[{"name":"","type":"string","internalType":"string"}],"stateMutability":"view"},{"type":"function","name":"transferFrom","inputs":[{"name":"from","type":"address","internalType":"address"},{"name":"to","type":"address","internalType":"address"},{"name":"tokenId","type":"uint256","internalType":"uint256"}],"outputs":[],"stateMutability":"nonpayable"},{"type":"event","name":"Approval","inputs":[{"name":"owner","type":"address","indexed":true,"internalType":"address"},{"name":"approved","type":"address","indexed":true,"internalType":"address"},{"name":"tokenId","type":"uint256","indexed":true,"internalType":"uint256"}],"anonymous":false},{"type":"event","name":"ApprovalForAll","inputs":[{"name":"owner","type":"address","indexed":true,"internalType":"address"},{"name":"operator","type":"address","indexed":true,"internalType":"address"},{"name":"approved","type":"bool","indexed":false,"internalType":"bool"}],"anonymous":false},{"type":"event","name":"Transfer","inputs":[{"name":"from","type":"address","indexed":true,"internalType":"address"},{"name":"to","type":"address","indexed":true,"internalType":"address"},{"name":"tokenId","type":"uint256","indexed":true,"internalType":"uint256"}],"anonymous":false},{"type":"error","name":"ERC721IncorrectOwner","inputs":[{"name":"sender","type":"address","internalType":"address"},{"name":"tokenId","type":"uint256","internalType":"uint256"},{"name":"owner","type":"address","internalType":"address"}]},{"type":"error","name":"ERC721InsufficientApproval","inputs":[{"name":"operator","type":"address","internalType":"address"},{"name":"tokenId","type":"uint256","internalType":"uint256"}]},{"type":"error","name":"ERC721InvalidApprover","inputs":[{"name":"approver","type":"address","internalType":"address"}]},{"type":"error","name":"ERC721InvalidOperator","inputs":[{"name":"operator","type":"address","internalType":"address"}]},{"type":"error","name":"ERC721InvalidOwner","inputs":[{"name":"owner","type":"address","internalType":"address"}]},{"type":"error","name":"ERC721InvalidReceiver","inputs":[{"name":"receiver","type":"address","internalType":"address"}]},{"type":"error","name":"ERC721InvalidSender","inputs":[{"name":"sender","type":"address","internalType":"address"}]},{"type":"error","name":"ERC721NonexistentToken","inputs":[{"name":"tokenId","type":"uint256","internalType":"uint256"}]}],"bytecode":{"object":"0x608060405234801561001057600080fd5b506040518060400160405280600681526020016541667269646160d01b8152506040518060400160405280600381526020016213919560ea1b815250816000908161005b9190610111565b5060016100688282610111565b5050506101d0565b634e487b7160e01b600052604160045260246000fd5b600181811c9082168061009a57607f821691505b6020821081036100ba57634e487b7160e01b600052602260045260246000fd5b50919050565b601f82111561010c576000816000526020600020601f850160051c810160208610156100e95750805b601f850160051c820191505b81811015610108578281556001016100f5565b5050505b505050565b81516001600160401b0381111561012a5761012a610070565b61013e816101388454610086565b846100c0565b602080601f831160018114610173576000841561015b5750858301515b600019600386901b1c1916600185901b178555610108565b600085815260208120601f198616915b828110156101a257888601518255948401946001909101908401610183565b50858210156101c05787850151600019600388901b60f8161c191681555b5050505050600190811b01905550565b6110a7806101df6000396000f3fe6080604052600436106100e75760003560e01c80636352211e1161008a578063a22cb46511610059578063a22cb46514610269578063b88d4fde14610289578063c87b56dd146102a9578063e985e9c5146102c957600080fd5b80636352211e146102015780636a6278421461022157806370a082311461023457806395d89b411461025457600080fd5b8063081812fc116100c6578063081812fc14610167578063095ea7b31461019f57806323b872dd146101c157806342842e0e146101e157600080fd5b80629a9b7b146100ec57806301ffc9a71461011557806306fdde0314610145575b600080fd5b3480156100f857600080fd5b5061010260065481565b6040519081526020015b60405180910390f35b34801561012157600080fd5b50610135610130366004610cf0565b6102e9565b604051901515815260200161010c565b34801561015157600080fd5b5061015a61033b565b60405161010c9190610d5d565b34801561017357600080fd5b50610187610182366004610d70565b6103cd565b6040516001600160a01b03909116815260200161010c565b3480156101ab57600080fd5b506101bf6101ba366004610da5565b6103f6565b005b3480156101cd57600080fd5b506101bf6101dc366004610dcf565b610405565b3480156101ed57600080fd5b506101bf6101fc366004610dcf565b610495565b34801561020d57600080fd5b5061018761021c366004610d70565b6104b5565b61010261022f366004610e0b565b6104c0565b34801561024057600080fd5b5061010261024f366004610e0b565b6104e3565b34801561026057600080fd5b5061015a61052b565b34801561027557600080fd5b506101bf610284366004610e26565b61053a565b34801561029557600080fd5b506101bf6102a4366004610e78565b610545565b3480156102b557600080fd5b5061015a6102c4366004610d70565b61055c565b3480156102d557600080fd5b506101356102e4366004610f54565b6105d1565b60006001600160e01b031982166380ac58cd60e01b148061031a57506001600160e01b03198216635b5e139f60e01b145b8061033557506301ffc9a760e01b6001600160e01b03198316145b92915050565b60606000805461034a90610f87565b80601f016020809104026020016040519081016040528092919081815260200182805461037690610f87565b80156103c35780601f10610398576101008083540402835291602001916103c3565b820191906000526020600020905b8154815290600101906020018083116103a657829003601f168201915b5050505050905090565b60006103d8826105ff565b506000828152600460205260409020546001600160a01b0316610335565b610401828233610638565b5050565b6001600160a01b03821661043457604051633250574960e11b8152600060048201526024015b60405180910390fd5b6000610441838333610645565b9050836001600160a01b0316816001600160a01b03161461048f576040516364283d7b60e01b81526001600160a01b038086166004830152602482018490528216604482015260640161042b565b50505050565b6104b083838360405180602001604052806000815250610545565b505050565b6000610335826105ff565b6000806006600081546104d290610fc1565b91829055509050610335838261073e565b60006001600160a01b03821661050f576040516322718ad960e21b81526000600482015260240161042b565b506001600160a01b031660009081526003602052604090205490565b60606001805461034a90610f87565b610401338383610758565b610550848484610405565b61048f848484846107f7565b6060610567826105ff565b50600061057f60408051602081019091526000815290565b9050600081511161059f57604051806020016040528060008152506105ca565b806105a984610920565b6040516020016105ba929190610fe8565b6040516020818303038152906040525b9392505050565b6001600160a01b03918216600090815260056020908152604080832093909416825291909152205460ff1690565b6000818152600260205260408120546001600160a01b03168061033557604051637e27328960e01b81526004810184905260240161042b565b6104b083838360016109b3565b6000828152600260205260408120546001600160a01b039081169083161561067257610672818486610ab9565b6001600160a01b038116156106b05761068f6000856000806109b3565b6001600160a01b038116600090815260036020526040902080546000190190555b6001600160a01b038516156106df576001600160a01b0385166000908152600360205260409020805460010190555b60008481526002602052604080822080546001600160a01b0319166001600160a01b0389811691821790925591518793918516917fddf252ad1be2c89b69c2b068fc378daa952ba7f163c4a11628f55a4df523b3ef91a4949350505050565b610401828260405180602001604052806000815250610b1d565b6001600160a01b03821661078a57604051630b61174360e31b81526001600160a01b038316600482015260240161042b565b6001600160a01b03838116600081815260056020908152604080832094871680845294825291829020805460ff191686151590811790915591519182527f17307eab39ab6107e8899845ad3d59bd9653f200f220920489ca2b5937696c31910160405180910390a3505050565b6001600160a01b0383163b1561048f57604051630a85bd0160e11b81526001600160a01b0384169063150b7a0290610839903390889087908790600401611017565b6020604051808303816000875af1925050508015610874575060408051601f3d908101601f1916820190925261087191810190611054565b60015b6108dd573d8080156108a2576040519150601f19603f3d011682016040523d82523d6000602084013e6108a7565b606091505b5080516000036108d557604051633250574960e11b81526001600160a01b038516600482015260240161042b565b805181602001fd5b6001600160e01b03198116630a85bd0160e11b1461091957604051633250574960e11b81526001600160a01b038516600482015260240161042b565b5050505050565b6060600061092d83610b34565b600101905060008167ffffffffffffffff81111561094d5761094d610e62565b6040519080825280601f01601f191660200182016040528015610977576020820181803683370190505b5090508181016020015b600019016f181899199a1a9b1b9c1cb0b131b232b360811b600a86061a8153600a850494508461098157509392505050565b80806109c757506001600160a01b03821615155b15610a895760006109d7846105ff565b90506001600160a01b03831615801590610a035750826001600160a01b0316816001600160a01b031614155b8015610a165750610a1481846105d1565b155b15610a3f5760405163a9fbf51f60e01b81526001600160a01b038416600482015260240161042b565b8115610a875783856001600160a01b0316826001600160a01b03167f8c5be1e5ebec7d5bd14f71427d1e84f3dd0314c0f7b2291e5b200ac8c7c3b92560405160405180910390a45b505b5050600090815260046020526040902080546001600160a01b0319166001600160a01b0392909216919091179055565b610ac4838383610c0c565b6104b0576001600160a01b038316610af257604051637e27328960e01b81526004810182905260240161042b565b60405163177e802f60e01b81526001600160a01b03831660048201526024810182905260440161042b565b610b278383610c72565b6104b060008484846107f7565b60008072184f03e93ff9f4daa797ed6e38ed64bf6a1f0160401b8310610b735772184f03e93ff9f4daa797ed6e38ed64bf6a1f0160401b830492506040015b6d04ee2d6d415b85acef81000000008310610b9f576d04ee2d6d415b85acef8100000000830492506020015b662386f26fc100008310610bbd57662386f26fc10000830492506010015b6305f5e1008310610bd5576305f5e100830492506008015b6127108310610be957612710830492506004015b60648310610bfb576064830492506002015b600a83106103355760010192915050565b60006001600160a01b03831615801590610c6a5750826001600160a01b0316846001600160a01b03161480610c465750610c4684846105d1565b80610c6a57506000828152600460205260409020546001600160a01b038481169116145b949350505050565b6001600160a01b038216610c9c57604051633250574960e11b81526000600482015260240161042b565b6000610caa83836000610645565b90506001600160a01b038116156104b0576040516339e3563760e11b81526000600482015260240161042b565b6001600160e01b031981168114610ced57600080fd5b50565b600060208284031215610d0257600080fd5b81356105ca81610cd7565b60005b83811015610d28578181015183820152602001610d10565b50506000910152565b60008151808452610d49816020860160208601610d0d565b601f01601f19169290920160200192915050565b6020815260006105ca6020830184610d31565b600060208284031215610d8257600080fd5b5035919050565b80356001600160a01b0381168114610da057600080fd5b919050565b60008060408385031215610db857600080fd5b610dc183610d89565b946020939093013593505050565b600080600060608486031215610de457600080fd5b610ded84610d89565b9250610dfb60208501610d89565b9150604084013590509250925092565b600060208284031215610e1d57600080fd5b6105ca82610d89565b60008060408385031215610e3957600080fd5b610e4283610d89565b915060208301358015158114610e5757600080fd5b809150509250929050565b634e487b7160e01b600052604160045260246000fd5b60008060008060808587031215610e8e57600080fd5b610e9785610d89565b9350610ea560208601610d89565b925060408501359150606085013567ffffffffffffffff80821115610ec957600080fd5b818701915087601f830112610edd57600080fd5b813581811115610eef57610eef610e62565b604051601f8201601f19908116603f01168101908382118183101715610f1757610f17610e62565b816040528281528a6020848701011115610f3057600080fd5b82602086016020830137600060208483010152809550505050505092959194509250565b60008060408385031215610f6757600080fd5b610f7083610d89565b9150610f7e60208401610d89565b90509250929050565b600181811c90821680610f9b57607f821691505b602082108103610fbb57634e487b7160e01b600052602260045260246000fd5b50919050565b600060018201610fe157634e487b7160e01b600052601160045260246000fd5b5060010190565b60008351610ffa818460208801610d0d565b83519083019061100e818360208801610d0d565b01949350505050565b6001600160a01b038581168252841660208201526040810183905260806060820181905260009061104a90830184610d31565b9695505050505050565b60006020828403121561106657600080fd5b81516105ca81610cd756fea264697066735822122058a9f09db40f7a16e46373430ec47c3c658e2ab8aae97f1600a57b5def80009e64736f6c63430008190033","linkReferences":{}},"methodIdentifiers":{"approve(address,uint256)":"095ea7b3","balanceOf(address)":"70a08231","currentTokenId()":"009a9b7b","getApproved(uint256)":"081812fc","isApprovedForAll(address,address)":"e985e9c5","mint(address)":"6a627842","name()":"06fdde03","ownerOf(uint256)":"6352211e","safeTransferFrom(address,address,uint256)":"42842e0e","safeTransferFrom(address,address,uint256,bytes)":"b88d4fde","setApprovalForAll(address,bool)":"a22cb465","supportsInterface(bytes4)":"01ffc9a7","symbol()":"95d89b41","tokenURI(uint256)":"c87b56dd","transferFrom(address,address,uint256)":"23b872dd"},"id":11}